:020000040800F2
:10000000C81A0020D500000825BD000801AF00086F
:1000100000000000000000000000000000000000E0
:1000200000000000000000000000000015C50008EE
:100030000000000000000000D1BE000825CB000831
:1000400095D10008E7000008A5BF0008E7000008F8
:10005000E7000008716F0008B56F0008997B000881
:1000600000000000E7000008396F0008E700000802
:10007000E7000008E700000800000000E7000008B3
:100080000000000031CC000800000000000000006B
:10009000E700000800000000E700000829AF0008A2
:1000A000E7000008E7000008E70000085DD100084D
:1000B000E7000008E7000008000000000000000062
:1000C0000348854603F0E0FF00480047DDE10008F3
:1000D000C81A00200448804704480047FEE7FEE7AE
:1000E000FEE7FEE7FEE7FEE7DDCB0008C100000803
:1000F000FDB598B080482E22825E002A28D07F4A23
:10010000914225D003AB0A781A704A785A700226B9
:100110009C228258FF24E034121902926A46C48D50
:100120001480009C24B218A80578AE4217D2885DCE
:100130009A190192F20707D50219029F3F78BA4235
:1001400002DA009A12B28018019A1070761CECE75D
:10015000199A18A800780CF01AF91BB0F0BD1AA86B
:100160000378199A03A918A800780CF010F9F4E79D
:1001700080B5694680220A70487000230022022060
:100180000CF005F901BD70B586B00300080000242D
:1001900069460C704B7003E0155D0E19B570641C58
:1001A0008442F9D300230022801CC0B20CF0EFF887
:1001B00006B070BD70B58CB00E0015006B46012105
:1001C00019705870340004D0FF222100981C03F0ED
:1001D0009DFB002306AA6946B61CF0B20CF0D7F8C6
:1001E000002006A903E00A1892782A54401CA04275
:1001F000F9D30CB070BD1CB50420694608706A467E
:1002000001213020FFF7BFFF0720694608706A46CA
:1002100001216220FFF7B7FF6A4601216320FFF743
:10022000C9FF68460078FD210140684601706A46B2
:1002300001216320FFF7A7FFD720694608706A46AF
:1002400001216520FFF79FFF9C20694608706A46E0
:1002500001217620FFF797FF2820694608706A463B
:1002600001217720FFF78FFFC820694608706A4692
:1002700001216420FFF787FF1F4C2420205C002809
:100280001BD02420205C082817DA2420205C0001E1
:1002900002210143684601706A4601217920FFF777
:1002A00072FF2420205C052807DB8820694608703F
:1002B0006A4601216420FFF766FF00AA521C012153
:1002C000F120FFF777FF68464078C12807D12E203C
:1002D000694608706A4601216C20FFF754FF302000
:1002E000694608706A4601213F20FFF74CFF012054
:1002F0003121605413BD0000D80100209807000888
:10030000F8B588B0CC49CE69CC498E4200D3760886
:10031000012800D08EE06120694608740020FA218F
:1003200049003200002303F02BFA84B20021C44AB2
:1003300000231219300003F053FA0022C14B1218A7
:100340004B41029203930020FA2149000090019151
:1003500030000021802252020023121903F040FADB
:10036000009A019B121A8B4102980399994203D873
:1003700001D3904200D2641C0594F42000060121B0
:10038000AD4EF269AD4B9A422AD30025F2690023A3
:1003900003F0F6F90400F0690290F0690021E2B27E
:1003A0000023521C03F01CFAC02212050123DB4378
:1003B00012184B4100920193F42636060127029849
:1003C0000021E2B2002303F00BFA361A8F410098A5
:1003D0000199B9422FD802D3B04200D3C8E0C6E099
:1003E0000125F269002303F0CBF90400F0690790BE
:1003F000F6690021E0B2FF22921C0023121830009F
:1004000003F0EEF9C02212050123DB4312184B4121
:1004100002920393F420000600900195079E0021AC
:10042000E0B22A0200231218300003F0D9F9009A32
:10043000012393E0022800D09AE063206946087403
:100440000020D2493200002303F09AF984B200213F
:100450007B4A00231219300003F0C2F90022CC4B72
:1004600012184B41029203930020C8490090019159
:1004700030000021802252020023121903F0B0F94B
:10048000009A019B121A8B4102980399994203D852
:1004900001D3904200D2641C0594674EF06967490D
:1004A00088422DD30225DC2000060521F2690023B5
:1004B00003F066F90400F0690790F6690021E0B2E4
:1004C000FF22921C00231218300003F089F99022B9
:1004D00092050523DB4312184B4102920393DC2063
:1004E0000006052100900191079E0021E0B2EA017B
:1004F00000231218300003F073F9009A05232DE051
:100500000325EE2000060221F269002303F038F9EA
:100510000400F0690790F6690021E0B2FF22921C06
:1005200000231218300003F05BF9902252050223D9
:10053000DB4312184B4102920393EE200006022186
:1005400000900191079E0021E0B28022520000231A
:100550001218300003F044F9009A0223121A8B415A
:1005600002980399994203D801D3904200D2641CA7
:1005700006AE05980004000E30700598707068464D
:10058000007CB07006AA03210E20FFF7FCFD80203E
:1005900028433070747006AA02211120FFF7F3FD82
:1005A000254908009C3026228A5C002A01D0496C2B
:1005B00000E0096C016000211F4A482503685B5C6C
:1005C00054186355491C5229F8DB09B0F0BD018865
:1005D0000A06520F4A401202C905090E1143C90505
:1005E000C90D0180704711B581B0082401A8FFF73B
:1005F000EEFF641EFAD16846808816BD1CB50E4910
:100600009C228C5800280ED1EE2040002018027841
:100610007A23CB5C934200D142787A200A5401239A
:100620000022483103E001230022210052315220F0
:10063000FFF75EFD13BD0000D801002081C3C90192
:10064000010001000CFEFFFFF8B5524C9C20205821
:1006500061890727082600252279921E062A6BD871
:1006600001A39B5C9F4400BF084A2C7C90A2B4006D
:1006700001230022CD21490041184220FFF738FD17
:10068000A07C012802D16681042033E025816781A6
:1006900003202FE0228ACA40D007C00FFFF7AEFF29
:1006A000608900281BD16681208AFFF79CFF208289
:1006B000F1BDE0682289825CCA40D007C00FFFF715
:1006C0009DFF608900280AD167812089401C208114
:1006D000E18880B288422FD1258105200AE0401EA2
:1006E0006081F1BD012300220100A4315220FFF7F7
:1006F000FFFC06202071F1BD012300220100F6312C
:100700005220FFF7F5FC2771F1BD0123002200BF45
:1007100021A14220FFF7ECFC2671F1BD00F0DBFCCB
:100720007220FFF725FD01220021E0780BF0AAFDE1
:100730002571012028216054F1BD00001CB57220F4
:10074000FFF716FD0023002213A11220FFF7D0FCB3
:10075000104C002300229C202058A421490041185D
:100760005220FFF7C5FC3220694608706A46012115
:10077000E078FFF708FD01220121E0780BF082FD0F
:1007800001202C2160540220207113BDEE020000D4
:1007900012FDFFFFD801002000FF00000000000054
:1007A0000000000000000000000000000000000049
:1007B0000000000000000000000000000000000039
:1007C0000000000000000000000000000000000029
:1007D0000000000000000000000000000000000019
:1007E000F8B58AB0D04FF869059008A87AA10CC96D
:1007F0000CC00598CD49884201D340080590059C5E
:100800000020962189002200002302F0B9FF86B261
:100810000021CF4A00239219200002F0E1FF0022BC
:10082000CC4B12184B410292039300209621890071
:100830000090019100218022520200239219200091
:1008400002F0CEFF009A019B121A8B410298039985
:10085000994203D801D3904200D2761C0696C82054
:100860000006F96902F062FFC4B2FD69F86900216F
:100870000023621C02F0B4FFCDA20CCA12184B4137
:1008800002920393C82000060021009001912800E5
:100890002200002302F0A4FF009A0023121A8B41C9
:1008A00002980399994205D801D3904202D2684632
:1008B000641C00E068460470BF4C00AEB61C20000B
:1008C0000121FA69002302F05BFF643830702000D8
:1008D0000121059A002302F053FF6438707000AACA
:1008E000921C02210920FFF74EFC07AC0698000479
:1008F000000E2070069860702120A07007AA0321C6
:100900000E20FFF740FC00252570684600786070D7
:1009100007AA02211120FFF736FC882069460874D7
:1009200004AA01211320FFF72EFC08AA05212E207E
:10093000FFF729FC402608AC267008AA01212B20CD
:10094000FFF721FC27202070B220607008AA022146
:100950003520FFF718FC2670657008AA022139209F
:10096000FFF711FC6846057404AA01211F20FFF758
:100970000AFC07206946087404AA01211820FFF721
:1009800002FC70206946087404AA01212120FFF7A7
:10099000FAFB20206946087404AA0121FFF7F3FB43
:1009A0006846057404AA01211420FFF7ECFB872098
:1009B0006946087404AA01217620FFF7E4FB62204F
:1009C0006946087404AA01217720FFF7DCFB312077
:1009D0003D540BB0F0BD0000000000000F0000000F
:1009E000FEB50600504C06D13120205C002802D014
:1009F00000202071FEBDA069002801D1E069A0613E
:100A000001200BF0B5FC00200BF0B2FC2520205C8F
:100A1000002808D0B0206946487000AA521C012165
:100A20006D20FFF7B0FB200040302621615C0029DB
:100A300001D0416800E0216CC16500220021E0780E
:100A40000BF020FC206AA569902189004843B64933
:100A500002F082FE281AE061B44FE069B84208D281
:100A600055206946487000AA521C01216C20FFF7EE
:100A70008AFB01A82EA10A6802602078FF2803D013
:100A800001AA0121FFF77FFB607801ADFF2803D0A9
:100A90006A1C0121FFF777FBA078FF2803D0AA1C6E
:100AA0000121FFF770FB300034D0022E02D034D386
:100AB000032E34D1E569BD4200D96D0800AFBF1CDB
:100AC0003D480121E269002302F05AFE6438387083
:100AD000394801212A00002302F052FE6438787060
:100AE00000AA921C02210920FFF74DFB81206946D4
:100AF0000870032E01D1512008706A46012113208D
:100B0000FFF741FB2020694608706A4601212E202C
:100B1000FFF739FBFFF76FFB01E0FFF761FE00F025
:100B2000EDFA0020FEBD0000D801002081C3C901FC
:100B300092522A0080B500F0CEFA01200BF018FC8A
:100B4000BC4800212822815431228154002002BD5A
:100B500001000100A8FDFFFFF8B507000800002410
:100B60000021160000E0491CCAB2B242FBD30100CA
:100B700004D0B04D2C21695C002901D03120F2BD98
:100B8000FFF7BEFBAC74EF60EE80FFF7D7FD00F01F
:100B900099FA2E002836347001E00BF05DFC282015
:100BA000285C0028F9D034702C202C540020F2BD91
:100BB00000000038FFFFFFFF000074B77CB59D4CBC
:100BC0002C21615C002901D0312076BD0600E0783F
:100BD00031000125012E01D0022E0CD1012201216C
:100BE0000BF050FBA574944820823000FFF788FB7F
:100BF000FFF7A4FD21E0002E21D100220BF042FBE3
:100C00006A4601211020FFF7D5FA684600780007F0
:100C1000000F70210143684601706A4601211020CF
:100C2000FFF7B1FAE08D401C694608706A46012161
:100C30005A20FFF7A8FA2C20255400F043FA002090
:100C400076BD80B500F047FA7A4800212C22815405
:100C5000817C002904D000220021C0780BF012FB17
:100C6000002002BDF1B584B0C70A4605714D3000C1
:100C70003900EA69002302F083FD0400E86903906B
:100C8000E86900210090019100230020621C43418B
:100C9000009802F0A5FD801BB941009001910398D6
:100CA00000212200002302F09BFD361A8F4100989C
:100CB0000199B94203D801D3B04200D2641C022684
:100CC0000127CE49049A9200D04B9A42EA6903D395
:100CD0008A4204D2012603E08A4201D30326002778
:100CE00002AA01216520FFF765FA02AD2878FB21F1
:100CF0000140B8000843287002AA01216520FFF7CF
:100D000042FA2001000F710101432970200C687024
:100D1000200AA870EC7002AA04210520FFF733FA1C
:100D2000002005B0F0BD00001027000080C3C901FD
:100D3000F7B584B000266846467001A80660012712
:100D40000290C77020200299887001AA04215020C7
:100D5000FFF719FA022502990D70364C01AA0121FC
:100D6000E078FFF710FA00220121E0780BF08AFA10
:100D70007120FFF7FDF901AA0421FA20FFF71AFA02
:100D800020002830039006702C20255400F09DF997
:100D90006846457804E002988078800600D50125F1
:100DA0002920205C002801D0280034D00BF054FB0F
:100DB0002820205C0028F3D00398067001AA0421A3
:100DC000FA20FFF7F7F90298C078C007E3D5049D31
:100DD0006A4601219020FFF7EDF92A006846017864
:100DE000FF20FFF7E7F9220014320121A220FFF7CC
:100DF000E1F9207D40B230216156401892380599C2
:100E0000088000220021E0780BF03CFA2C202654C8
:100E1000069807700AE000F05EF900220021E078F1
:100E20000BF030FA2C20265406980670002007B0EC
:100E3000F0BD0000D8010020FF010000F7B56A46B0
:100E400000231360964DEE696C4A964200D37608F3
:100E50000F00694608716C464020A0701020207079
:100E60006A4604215020FFF78EF9022020706A465E
:100E70000121E878FFF787F900220121E8780BF0DB
:100E800001FA3020285638186E3820706A46012141
:100E90001820FFF778F9802020706A460121392058
:100EA000FFF771F96846007900213200002302F053
:100EB00097FCFA229200002302F062FC794A002398
:100EC00002F05EFC06000F000020761C4741300057
:100ED0003900FF22002302F053FC60706078012883
:100EE00001DD401E00E001206946487030003900F5
:100EF0006A465278521CD31702F042FC69460870C9
:100F00006A4602214620FFF73EF904202C2168544E
:100F1000012602990E702800283001900024102725
:100F20007120FFF725F96A460421FA20FFF742F9FC
:100F30000198047000F0C9F82820285C00282CD102
:100F40002A20285C002828D10BF086FAF4E70078E4
:100F5000384206D12A20285C0028E1D02A202C54CF
:100F600000260298067002980078012807D168468A
:100F700004606A4604215020FFF705F904E00120CF
:100F80000BF0F6F931202C5400220021E8780BF008
:100F900079F92C202C540020FEBD2820285C002844
:100FA000D8D0019804706A460421FA20FFF702F9AC
:100FB000684681784906CAD500F08DF8CAE7000076
:100FC00008220A704BA10160002070473649087062
:100FD0007047012035490870704780B530482C2192
:100FE000415C012903D001212822815401BDFFF772
:100FF0002BFB01BD2E4908700020704781C3C90139
:101000002B490978017000207047000000A493D696
:10101000032801DD012070472149C8700020704776
:10102000042803DBFF2801D0012070471C49087009
:1010300000207047042803DBFF2801D001207047FF
:101040001749487000207047042803DBFF2801D0AF
:101050000120704712498870002070471049C885E8
:10106000002070470E498861002070470C490862D3
:10107000002070470F490870002070470E49087023
:10108000002070470D480068EF214900405C704720
:101090000B490870002070470148807C70470000B1
:1010A000D8010020BA040000010200200202002042
:1010B00008020020FD010020FE0100207402002033
:1010C000FC01002080B5602001E080B56120FFF7C1
:1010D0004FF8002002BD80B56720F8E780B56A466A
:1010E0000121A220FFF766F868460078923800B226
:1010F00002BD000076322E342E352E3070470000AF
:10110000F8B50025A048016CA04CA8000A5C225448
:101110004A1C125C631C1A548A1C125CA31C1A54CD
:10112000CA1C125CE31C1A546D1C032DEDD92C2D26
:1011300037D2A80026180422311F684602F0D4FBDB
:101140006846A90719D10378417801708178417008
:10115000C2788270C37000BF8DA30778DF5D07700F
:10116000595C4170995C8170C178595CC17001789B
:1011700036A2AB08D25C4A400270310010390A78BE
:101180000378534033704A784378534073708A78B9
:1011900083785340B370C978C0784840F0706D1CB4
:1011A000C5E7F1BDF8B50021002377480279102486
:1011B000A41A056C05E0754EE85C5F42F619F07301
:1011C0005B1CA342F7D1714803E05C182C5D4454CA
:1011D000491C9142F9D304266DA46D466B48B100B9
:1011E00047180422391F684602F07EFBB00717D16A
:1011F0002A7868782870A8786870E978A970EA7009
:101200002A78A25C2A70205C6870605CA870E8781C
:10121000205CE8700DA02978B208805C48402870F6
:101220003800103801782A784A403A7041786A7854
:101230004A407A708178AA784A40BA70C078E978D2
:101240004140F970761C2C2EC8D3F1BD8D010204EB
:1012500008102040801B366CD8AB4D9A2F5EBC63C3
:10126000C697356AD4B37DFAEFC5913972E4D3BD20
:1012700061C29F254A943366CC831D3A74E8CB8DB6
:1012800001020408102040801B366CD8AB4D9A2F09
:101290005EBC63C697356AD4B37DFAEFC5913972E7
:1012A000E4D3BD61C29F254A943366CC831D3A7452
:1012B000E8CB8D01020408102040801B366CD8ABAF
:1012C0004D9A2F5EBC63C697356AD4B37DFAEFC5DD
:1012D000913972E4D3BD61C29F254A943366CC83B1
:1012E0001D3A74E8CB8D01020408102040801B36A3
:1012F0006CD8AB4D9A2F5EBC63C697356AD4B37D6C
:10130000FAEFC5913972E4D3BD61C29F254A943387
:1013100066CC831D3A74E8CB8D010204081020408E
:10132000801B366CD8AB4D9A2F5EBC63C697356A6E
:10133000D4B37DFAEFC5913972E4D3BD61C29F2564
:101340004A943366CC831D3A74E8CB00F8B500218B
:1013500000238A000C4CE46BA418E4180B4D26788B
:101360000701BF18FF18ED5D754025705B1C042B4D
:10137000F0DB491C0429EBDBF1BD000070B5002354
:10138000014900BF02A26EE2780200203412002060
:10139000637C777BF26B6FC53001672BFED7AB7632
:1013A000CA82C97DFA5947F0ADD4A2AF9CA472C0DD
:1013B000B7FD9326363FF7CC34A5E5F171D831154A
:1013C00004C723C31896059A071280E2EB27B2756B
:1013D00009832C1A1B6E5AA0523BD6B329E32F84E3
:1013E00053D100ED20FCB15B6ACBBE394A4C58CFDB
:1013F000D0EFAAFB434D338545F9027F503C9FA8AF
:1014000051A3408F929D38F5BCB6DA2110FFF3D27C
:10141000CD0C13EC5F974417C4A77E3D645D197330
:1014200060814FDC222A908846EEB814DE5E0BDB2A
:10143000E0323A0A4906245CC2D3AC629195E47961
:10144000E7C8376D8DD54EA96C56F4EA657AAE08BB
:10145000BA78252E1CA6B4C6E8DD741F4BBD8B8A56
:10146000703EB5664803F60E613557B986C11D9EBC
:10147000E1F8981169D98E949B1E87E9CE5528DF33
:101480008CA1890DBFE6426841992D0FB054BB165F
:10149000F148C06B417842794270427A4271427B96
:1014A000427241738178827A827081728179827B03
:1014B00082718173C178C27BC270C27AC273C279F1
:1014C000C272C1717047F0B50022E349C86B930046
:1014D000C31818785D7845409E786E40DC7874407B
:1014E0006E00EF091B256F437740674047401F7030
:1014F0005F789D787D406E00B446EE091B256E43F3
:1015000065466E4066407E405E709F78DD787D4027
:101510006E00B446EE091B256E4365466E4066407C
:101520007E409E70DD7868404600C0091B277843E6
:10153000704044406C40DC70521C032AC6DDF0BD94
:10154000F0B589B000200890C348C06B08998900A5
:1015500040180790007869460871684607994978ED
:10156000C1710799897881710799C9784171694674
:101570000979C9091B225143417669460979490015
:1015800081766946897E6A46527E4A40C270C0783A
:101590006946C8766846C078C2091B235A430A7652
:1015A00040006A46127E42408A736846817B6A46E2
:1015B000D279D2095A43C2756A46D27952008275ED
:1015C0006A46927D6B46DB7D5340837080786A4625
:1015D000C3091B246343537540006B465B7D434046
:1015E00053736846427B6B469B79DB096343037503
:1015F0006B469B795B00C3746B46DB7C6C46247D39
:101600005C40447043786C46DD091B267543A57425
:101610005C00807C60406C466D466D79ED097543D9
:1016200065746D466D796D0025746D462D7C6E4632
:10163000767C6E40267024786F46E6091B256E4343
:10164000FE736D4664006E46F67B66402E736C46F4
:10165000247BE6091B256E43FE720606F60F6E43D9
:10166000BE72D6096E437E72CE096E433E726D46DF
:101670002D796E46F67E6E4076006D466D7E754025
:101680006E46367E6E40490071406D462D7A4D4063
:101690006946C97969406D46AD7D4D406946C97D51
:1016A000694052004A406946497A51406A469279F7
:1016B0004A40590051406A46927C4A40410051409C
:1016C0006A46927A4A4069464979514062004A40E6
:1016D0006946C97A5140079A117069468D7B8978AD
:1016E0006A46527B6B461B786C46247B6E46367985
:1016F0006D0075406E46367A6E406D46AD7D754024
:101700006E46F67D6E40490071406D466D7D4D40E0
:10171000510069406A46527A4A4069468979514087
:101720006A46D27C4A406946097D514042004A409F
:101730006946897A51406A4652794A405900514077
:101740006A46D27B4A40610051406A46D27A4A409A
:1017500007994A706946CD78897B6A46527B6B4609
:101760005B786C46247B6E4636796D0075406E461C
:10177000367E6E40490071406D462D7A4D40694677
:10178000C979694052004A406946497A51406A46DF
:10179000D27C4A406946097D51405A004A40694618
:1017A000897C514042004A406946897A51406A46E4
:1017B00052794A406946097C51406A46527C4A4007
:1017C000610051406A46D27A4A4007998A70694658
:1017D000897B6A4692786B465B7B6C4624786D46C3
:1017E0002D7B6E463779B67E7E406F467F7E774092
:1017F000490079406E46367A4E406946C979714053
:1018000052004A406946497D51405A004A40694663
:10181000497A51406A4692794A40400050406946B0
:10182000897A41406846007C48406946497C41408D
:10183000600048406946C97B4140680048406946AD
:10184000C97A41400798C1700898401C0890032845
:1018500000DC79E609B0F0BD7802002070B5002305
:10186000D74900BF07A20024CD6BED18A600AD1923
:101870002E78965D2E70641C042CF5DB5B1C042B0B
:10188000F1DB70BD52096AD53036A538BF40A39E42
:1018900081F3D7FB7CE339829B2FFF87348E43444F
:1018A000C4DEE9CB547B9432A6C2233DEE4C950BAB
:1018B00042FAC34E082EA16628D924B2765BA2490B
:1018C0006D8BD12572F8F66486689816D4A45CCC2A
:1018D0005D65B6926C704850FDEDB9DA5E154657FD
:1018E000A78D9D8490D8AB008CBCD30AF7E4580533
:1018F000B8B34506D02C1E8FCA3F0F02C1AFBD033F
:1019000001138A6B3A9111414F67DCEA97F2CFCE0F
:10191000F0B4E67396AC7422E7AD3585E2F937E8AA
:101920001C75DF6E47F11A711D29C5896FB7620EEC
:10193000AA18BE1BFC563E4BC6D279209ADBC0FECD
:1019400078CD5AF41FDDA8338807C731B11210597A
:101950002780EC5F60517FA919B54A0D2DE57A9F6C
:1019600093C99CEFA0E03B4DAE2AF5B0C8EBBB3C61
:1019700083539961172B047EBA77D626E1691463E5
:1019800055210C7D8E48C06B417B427A427342796F
:1019900042724278427141708178827A827081729B
:1019A0008179827B82718173C178C279C270C27A77
:1019B000C271C27BC272C173704710B50020FFF7BD
:1019C000C5FC0124FFF7DAFCFFF762FDFFF77BFDA2
:1019D000E0B2FFF7BBFC641CE0B20A28F2DBFFF7C1
:1019E000CDFCFFF755FD0A20FFF7B0FC10BD10B588
:1019F0000A20FFF7ABFC0924FFF7C4FFFFF72EFF17
:101A0000E0B2FFF7A3FCFFF79BFD641E2006F3D1B5
:101A1000FFF7B8FFFFF722FF0020FFF797FC10BD8C
:101A200000228B5C8354521C102AFADB704730B5BD
:101A30000021634A526C43181C78555C65401D7048
:101A4000491C1029F7DB30BDF7B505000E001C005E
:101A50001007000F00902800FFF7E2FF584FFD63CA
:101A60003C64FFF79FFB7878B978014302D03800D7
:101A7000703000E0B86C7864340000260DE020007F
:101A8000FFF7D5FF21002800FFF7CAFFFD63FFF72E
:101A900094FF7D6410341035103602988642EED3E0
:101AA0002100009800280CD02800FFF7B9FF102073
:101AB0000099411A0098281801F02FFFFD63FFF7E5
:101AC0007CFF10207978002902D03900603107E0CE
:101AD000B978002902D03900503101E0F96CF8786A
:101AE00038713964F7BDF5B585B00C001007000FEB
:101AF000009001AD01A8FFF793FF314F01A8F863F3
:101B0000FFF7FEFAB86C786400260DE0210028008B
:101B1000FFF786FFFD63FFF76AFF2800FFF787FFE7
:101B20007C6410341035103606988642EED32100BE
:101B3000009800280CD02800FFF772FF10200099B1
:101B4000411A0098281801F0E8FEFD63FFF74FFFE7
:101B50000599002200203B791024E51A01AC05E02C
:101B60004642A619F67B0E54401CC0B2A842F7D1DB
:101B700003E0665D45194E55521CD5B29D42F8D31F
:101B800007B0F0BD7FB50C000D4E310070317164AF
:101B90003064FFF7B5FA012510222100684601F0F4
:101BA000A3FEF463FFF723FF2000FFF740FF10229E
:101BB0006946706C01F098FE10346D1EECD17FBD4B
:101BC0007802002002684068121800208300CB5879
:101BD000D218401C0828F9D3D0437047FBB594B005
:101BE0001700002404A80AF0B3F8002204AD002175
:101BF000AB5CC918521C382AFAD3BD4E002804D158
:101C0000002902D0A86B814202D0346101207EE01D
:101C100005986C46010E012902D0022932D03FE01E
:101C2000010C2170000AE0732020285C60702220E3
:101C3000285CA0702420285CE0702620285C20719D
:101C40002820285C60712A20285CA0712C20285C48
:101C5000E0712D20285C20722120285C60722B20EE
:101C6000285CA0722320285CE0722920285C207365
:101C70002520285C60732720285CA0732900103180
:101C800068460BE06A460C219A480AF04DF868460F
:101C900021000C3102680A6029001031FFF772FF41
:101CA0001C9C3800159F149904AA127905920270A1
:101CB0000498306104980860082229000831300037
:101CC000083001F011FE082229000831380001F027
:101CD0000BFE109816990860686B20702821300060
:101CE000143001F01AFE1022290010313000243087
:101CF00001F0FAFD30001430B0643000243030645C
:101D000030002430F06410203071F070002017B0E3
:101D1000F0BDF4B594B006000D006A460421F82029
:101D2000400005F0B1FF0CAA2021080105F0ACFF2E
:101D300001AA0821062005F0A7FF0CA901A8FFF7BA
:101D400041FF6B4C0C9921610027002906D000222D
:101D5000D243914202D00099884202D027610120EB
:101D600073E00B950CAD0822291D2000083001F00E
:101D7000BBFD2069306000210B9822000832525CC4
:101D80004254491C0829F8DB0F20297B0F220A4006
:101D900000D1012214990A7003AA21693B069B0D08
:101DA000D1507F1CF9B20429F7DB2169079107A9FB
:101DB00001AA0B1DC0CAC0C32269D3430A93CA7BC0
:101DC0002B7B872B01DA134300E01340CB730A7B94
:101DD0006B7B192B01DA134300E013400B7303A94B
:101DE0000A7AAB7B802B01DA134300E013400B72BD
:101DF000CA7AEB7B802B01DA1A4300E01A40CA72E0
:101E00001840022801DA022002E00E2800DB0D2033
:101E1000207103A8A06407A82064102229001031B3
:101E200020002430FFF75FFE10212000143001F065
:101E300074FD20001430A064200024302064207938
:101E4000E07020002430E064002015B0F0BD38B50B
:101E5000274C246C002C01D1012032BD049D002DA3
:101E600000D12300FFF7F0FD002032BD20490028FB
:101E700004D010200A005032012302E0C878CA6C56
:101E800000238B700BE01A49002804D010200A00B0
:101E90006032012302E0C878CA6C00234B700A64E8
:101EA00008710020704712490870002070471049DF
:101EB0000A78002A02D01049016006E00B001033B6
:101EC0009B5C8354521C042AF8DB002070470849AD
:101ED0000A6C002A01D10120704700220B00083350
:101EE0009B5C8354521C082AF8DB002070470000DA
:101EF000780200205000F81F98BADCFEF0B583B0DD
:101F00000400954E3078002801D01120B2E0002C5A
:101F100001D11320AEE06D463B20E871684609F020
:101F20007EFC010001D010219EE0E8793B2801D021
:101F300012209FE0311D742009F096FC7268002A7F
:101F400001D0010001D010218EE0110057311000A6
:101F50006C3001F0F1F90700706803D009F04CFC17
:101F6000380087E0697809022A7811438184E9788A
:101F70000902AA7811430905090D54228152A97951
:101F80005A228154607B02281BD172680320906022
:101F90009E49D1600021116123699362237E30251F
:101FA0005355726813002C336569994FBD4203D1B4
:101FB000FA214900196001E01960022031215054D2
:101FC00010E001280ED17268A44890600021D16011
:101FD00011610120322150546879000229790843A7
:101FE00071688886706821680160616841600200DC
:101FF0005632617BD17101006031A3680B60002310
:1020000053801370227B012A01D1642203E0022A4B
:1020100002D1962292008A80227B0A74A2689D4B8C
:102020009A4208D13C20C8809B480881607B0428E4
:102030001DD102201CE0994B9A4204D10820C8808F
:10204000FA20C000F1E7964B9A4203D13C20C880A9
:102050006E48EAE7934B9A4203D13C20C8809248ED
:10206000E3E709F0C9FB142100F063FA02E0012064
:102070003070002003B0F0BD70B500250024364E4E
:102080003078002801D1212070BD706809F0B4FBC0
:10209000010000D020243570210000F04AFA70BD04
:1020A00030B583B0069C012C01D1012500E000254C
:1020B000002801D1332013E00D2901DB30200FE08F
:1020C000002A03D1012C01D1312009E002950193AE
:1020D00000920B00020001211F48406800F018FB2D
:1020E00003B030BD10B584B002240443012B06D1E7
:1020F00001206B461C73002904D134200CE0002021
:102100006B461C73029001920091002303AA0021E8
:102110001148406800F0FCFA04B010BD00B583B06F
:10212000012801DD352015E0002802D10321072315
:1021300003E0012801D104210523002002900220A0
:10214000019000200090DBB20022C9B20248406832
:1021500000F0DEFA03B000BDE412002080B5002AD2
:1021600003D0022A12D009D313E000BFB3A2026049
:10217000002901D00B200870002002BD09F054FB9B
:102180000100F9D05C2100F0D4F902BDFEF718FF80
:10219000F6E75D210020F6E738B50C00A54D29785B
:1021A000012930D1696802688A604268CA60806823
:1021B0000861C00509D5086E394A904205D108006A
:1021C0006030344A0260344A02815D20085C012894
:1021D0000AD1080000F043F96968C886002801D1D7
:1021E000412032BD32200C5468685D21415C0229D7
:1021F00007D18168002902D0C068062801D240209A
:1022000032BD02202870002032BD0000881300007B
:10221000E0930400F8B507000C00864E30780028E3
:1022200001D05820F2BDFEF7DBFB050001D057219D
:102230000DE03800FEF716FD050004D12000FEF782
:10224000BDFC050006D0FEF775FC5721280000F004
:1022500070F9F2BD032030700020F2BDFF010000D4
:1022600038B5744C2078032801D05A2032BDFEF7CF
:10227000E8FC0025010001D0257004E0FEF75AFCBF
:102280000100257003D0592100F053F932BD002020
:1022900032BD000000EE020008520000D430000001
:1022A000A08C000000770100A8610000F0B583B0A9
:1022B0000400002901D1532041E00D2A01DB522006
:1022C0003DE05C4D2878022801D0512037E0032002
:1022D000287068686C26865D982E01D050202EE00C
:1022E00006006C367778BA2FF8D1B778DC2FF5D1A5
:1022F000F678FE2EF2D101930023009313000A001A
:10230000012100F0BDFA010019D1686800F0E0F980
:10231000010003D0542100F00CF910E0002C04D18E
:102320000021686800F0C2FF0400220000216868F4
:1023300000F02AFD010002D102202870002003B025
:10234000F0BDF8B50D0017001E003A4C21780229A7
:1023500001D05620F2BD0421217061686C228A5C94
:10236000982A01D05520F2BD0A006C325378BA2B5E
:10237000F8D19378DC2BF5D1D278FE2AF2D100285F
:1023800002D1080000F0D6FF01230200310028002E
:1023900000F0BCFE010012D13A002900606800F094
:1023A000D1FE9B2801D102212170010007D1606874
:1023B0006A21405A06990880022020700020F2BD50
:1023C000002101701B490A78002A06D049685D2265
:1023D0008A5C022A01D1096901700020704780B52A
:1023E000694600F0A9FF02BD80B509F013FA0100AB
:1023F00003D05B2100F09DF802BD002002BD0D4915
:102400000A78022A01D05E207047012800D00020FF
:10241000496856228854002070470749884201DBEA
:10242000B1207047401C0349496858228852002057
:1024300070470000E4120020FF0F000056322E35D6
:102440002E305F46444C00000100C87802028878B4
:10245000024348780002097808435040704770B43E
:102460000100002008310323012400250E68EE40FE
:10247000264000D0401C6D1C202DF7DB091D5B1E83
:10248000F3D1410008184004000C70BC7047F8B547
:1024900007000024481E062101F05EF9461CF6B232
:1024A0003B0008330021032200201D00B0421BD056
:1024B00000236F4679703C706C466478B0420DD052
:1024C0002F68DF40FF0705D5401CC0B2864201D10E
:1024D0006F463C705B1C641C202BEFDB6B461C784A
:1024E00020312D1D521EE1D12000F2BDF0B50C00AF
:1024F00005006035AE88006E310001F017F9070065
:102500002889310001F028F9381AE9886143401A16
:1025100080B2F0BD30B502000C0015006435A8880B
:102520006421515A01F018F969884C43001980B2AE
:1025300030BD0202C8B210437047F0B583B004004A
:102540000D0016005D20205C042801D002284ED129
:10255000A08C002803D080210901884206DB2000DE
:102560006C30FFF771FF4005400DA08427006037F5
:10257000012E1CD101212000FFF7B8FF050038898A
:10258000B98801F0E9F8F988411801232A0089B2D5
:10259000A08C01F053F8A0842083A08CF988401807
:1025A0006083A08CF988401AA08303B0F0BD6D1C35
:1025B000019500253889B98801F0CEF8060001237D
:1025C0000093206EB98801F0B1F8821B012392B20A
:1025D000B1B2A08C01F032F8A084210018316A0059
:1025E00088526D1CEDB201988542DEDAE2E7A08EDA
:1025F000002803D080210901884206DB20006C30CE
:10260000FFF722FF4005400DA086A08C002801D0D6
:10261000802806DB20006C30FFF716FF4006400ED6
:10262000A084012E1DD10123E28E521D92B20821F9
:10263000A08E01F003F8A086002326220421A08C9E
:1026400000F0FCFFA084A08E2087A08E401C608735
:10265000A08E401EA087A08C2083A08C6083A08CBD
:10266000A2E76D1C019500250123E28E921D92B216
:102670000721A08E00F0E2FFA0860023262204217D
:10268000A08C00F0DBFFA0846800A18E22181187C7
:10269000A18C2200183211526D1CEDB201988542B6
:1026A000E2DB82E7026849004118098B6423C35AC0
:1026B00059435118036E5B08C91A914201D3012195
:1026C00001E00021C943826AC06A41435018704743
:1026D00000B583B06946828C0A70828C120A4A70F7
:1026E00002005432537A012B04D1838E0B71838EF6
:1026F0001B0A4B715423C35A8B705423C05A000ACF
:10270000C87090798871684609F0BFF803B000BDC1
:10271000F2B584B004000026002700250CA800783C
:102720000390012800D10125C5480078022801D076
:102730006020A3E00320C24908700B98002802D152
:1027400069460E7202E002206946087201956846E9
:10275000007A00906846017C200000F091F80100AA
:1027600000D08BE02000FFF7B3FF002802D0010269
:1027700061206EE020005B308078022804D1E76899
:102780002069FF2188432061BBB26846027A0CA809
:102790000178200000F058FB010001D07E280DE0F8
:1027A000002D3FD00420A64908700CA802780A9991
:1027B000200000F086FC010005D09B285ED102219C
:1027C0009F4A11705AE0039801282BD103209C499D
:1027D0000870022008F0EEFF002802D001026420F9
:1027E00037E001900090082300220221200000F031
:1027F00047F8010042D12000FFF76AFF002802D00D
:102800000102622025E020005B308078022800D1A0
:102810008C4FBBB200220CA80178200000F014FB02
:1028200001002BD15B20205C012823D15B202654A2
:1028300001960096052300220421200000F020F8D4
:1028400001001BD12000FFF743FF002803D0010245
:102850006320084312E020005B308078022800D11A
:10286000E768BBB202220CA80178200000F0ECFA65
:10287000010003D1022072490870002005B0F0BDAC
:1028800070B582B004000D00079E009600F0EAF8D3
:1028900001003AD1022D05DB6B48E08362302084D1
:1028A0006A482BE05C20215C18A0102912DA49004C
:1028B00041181C390988E1835C21615C4900411899
:1028C0001039098821845C21615C49004018001F8F
:1028D000008813E00A3989104900415AE1835C21DC
:1028E000615C0A39891049004118898921845C2179
:1028F000615C0A39891049004018008B60843200FD
:1029000006992000FFF719FE002076BD6BA08DA070
:102910005FA311A64CA967AFE0A6D2A098A5BFA659
:1029200071A9C9AF34A002A3A3A52CA797A9BEB1D2
:10293000F3B58DB017001E00159C169D0B21681D68
:1029400000F0EBFFE078C0012871A078C001E178C9
:1029500049080143E9706078C001A1784908014342
:10296000A9702078C0016178490801436970207816
:102970004008802101432970354800685621405C99
:10298000009000BF33A31022290001A808F00AFF1D
:10299000010052D101A8017BFE220A400273149962
:1029A00009094173179A002A02D110220A4342737F
:1029B000149909013205120F0A438273C673E07835
:1029C000C0012871A078C001E17849080143E9708D
:1029D0006078C001A17849080143A9702078C0013E
:1029E00061784908014369702078400828701848C8
:1029F00000685621405C009016A31022290009A807
:102A000008F0D0FE010018D10120009009AB10227F
:102A100001A905A808F0C6FE01000ED138000BD0B0
:102A20000D9805A90E9A0B7814785C400470521C1E
:102A3000491C401C7F1EF6D100200FB0F0BD0000E5
:102A4000E4120020280A000067AF0000BEB10000B9
:102A5000E812002000112233445566778899AABBFA
:102A6000CCDDEEFFF2B594B0040017001D00022685
:102A700006965420205A401C542160520005000D37
:102A800060525721615C01291AD1002804D15A20D3
:102A9000205C401C5A21605414A8007804280FD0F0
:102AA0005420205A010509D05821615A002907D025
:102AB00000F052FE481E8041C00F02E0012000E0FD
:102AC00000200790280004D13878C107C90F0E43B1
:102AD00010E0012D01D100260CE0681E03214210F8
:102AE000920F121892109200801A0E1AF6B2B01CB1
:102AF000C0B2069014A80078002816D0022845D04D
:102B000003D3042874D014D39DE00021280009D0F9
:102B100020003E308A1DD2B23B788354491C7F1C72
:102B2000A942F5DBB0013E218CE0387880013E21DE
:102B300088E0B0013E21605404AA921C05A905A8B2
:102B4000801C08F079FE002802D001029220E1E00A
:102B50000820442160546846C08A45216054684674
:102B6000C08A000A462160546846808A4721605422
:102B70006846808A000A482160540498001449215C
:102B800060540498001400124A215BE0B0013E2119
:102B9000605404AA921C05A905A8801C08F04CFEEC
:102BA000002802D001029320B4E00920442160549F
:102BB0006846C08A452160546846C08A000A46219A
:102BC00060546846808A472160546846808A000ABB
:102BD000482160540498001449216054049800145A
:102BE00000124A2160546A20205A64304B2129E0A7
:102BF000B0013E21605404AA921C05A905A8801CBE
:102C000008F01AFE002802D00102952082E00A2076
:102C1000442160546846C08AC82100F087FD4521E0
:102C200060546846808AC82100F080FD46216054C7
:102C3000049800140A2100F08FFD472160545A20A7
:102C4000205C482160543E20215C1A9840012022DB
:102C5000104008433E2160545421615A0905090F70
:102C600001433E2021545420205A3F2160546C20BF
:102C7000205C4021605420006C3041784122A154F6
:102C800081784222A154C1784322A1545721615C2A
:102C9000012933D114A9097804292FD0290012D091
:102CA0000121039108A9029101905A20205C009013
:102CB0005420235A2A002100443120004430FFF7D9
:102CC00037FE002824D108AA5A20205C1070002169
:102CD000A81D23003E335B5C56187370491CC9B2B3
:102CE0008142F6DB04ABEA1DD2B208A90CA800F0C1
:102CF0006FFC002810D0010296200BE004ABAA1D47
:102D0000D2B221003E310CA800F062FC002803D0B2
:102D100001029120084335E000210698002811DDCA
:102D2000A81D0CAB069A6E46367C76189E19103E8E
:102D3000367827003E37C0B23E54491C401C9142B1
:102D4000F1DB069206982D18AE1D5C202654F1B2D8
:102D500020003E3000F0FAFA010A22003E32F6B2BC
:102D6000915521003E31ED1DEDB248555C20205CAF
:102D7000801D5C2160545B20205C079901435B202F
:102D80002154002015B0F0BDF0B587B004000F004D
:102D900015000020FDF724FE06002ED12800FDF7C7
:102DA00061FF060003D0FDF7C5FE310226E0AA212F
:102DB00068460170417079006118CA8B120A8270EE
:102DC000C98BC1703B005C21615C0A1FD2B2011D3E
:102DD00020003E3000F064FC5C20225C7020215C0E
:102DE0006846FDF7B9FE060003D0FDF7A3FE3102E9
:102DF00004E0FDF79FFE060003D001029720084380
:102E000000E0002007B0F0BDF8B50400080017008E
:102E10001D00FDF7E5FD060015D13800FDF722FF86
:102E2000060007D12A00302021560520FEF706F8BB
:102E3000060003D0FDF77EFE3000F2BDFDF77AFEFE
:102E4000060000D10020F2BDFAB585B000270025AC
:102E5000019700266946097D012900D101266946AE
:102E60008A7004005D20205C012810D14F70322050
:102E7000205C01280FD1002A0DD0002E0BD00A2093
:102E800008F008FD002834D0010270200EE16846E9
:102E90000122724042706846008B00284CD05D20B1
:102EA000205C022848D16846008B08F033FD0028DA
:102EB0001CD100212000FFF7F5FB6B4602003120FA
:102EC000215C2000FFF7A0FF002819D16846007898
:102ED000002818D1A068401E85421CD2032008F0AB
:102EE00069FC002817D001027920DFE00102772079
:102EF000DCE008F08DFD0028CDD001027120D5E086
:102F000001027620D2E068460078012803D108F05B
:102F100069FD002841D16D1CEDB2A1688D4203D23C
:102F2000694609780129BED122695107490FD208A3
:102F30005019C000081820615D20205C022804D1CF
:102F400068460078012800D0B2E0002569468978FB
:102F50000291491E04910299491C03912900200005
:102F600000F0A4F9020029002000FFF70DFF010086
:102F700000D0A4E05D20205C022802D12069401C22
:102F80002061002D2AD15D20205C6946097D012940
:102F90000ED1022804D1132003E00102782085E03D
:102FA000142008F077FC002818D0010275207DE07D
:102FB000012813D13220205C01280FD1E08E039923
:102FC00000F0CAFB0100142000F0B0FB80B2002822
:102FD000019003D008F05EFC002833D15D20205C16
:102FE00002280AD10298854207DA002D05D1FA207D
:102FF000400108F08FFC002827D16846407808F08F
:10300000D9FB002824D15D20205C022830D1029811
:1030100085422DDA691CC9B22000FFF743FB6B46DD
:1030200002003120215C2000FFF7EEFE002812D1C3
:1030300068460078002814D108F0D4FC00280DD18F
:10304000012715E00102722030E001027B202DE013
:10305000010274202AE001027A2027E001027C208C
:1030600024E00498854203D108F0BCFC00281BD161
:103070006D1CEDB20398854202DA380000D16DE78D
:103080005D20205C012819D13220205C012815D157
:103090000198000412D0002E10D108F0B9FC0028CD
:1030A0000CD00102732001E001027D20084306E0FC
:1030B00068460078002801D17E2000E0002007B09B
:1030C000F0BD70B504000D001600012E07D108F008
:1030D0009FFC002803D001029820084370BD62695C
:1030E0005D20205C022801D1222100E0192133005B
:1030F000012000F00BF8010007D12A000121200077
:1031000000F020F8010000D1002070BD70B50C0067
:1031100015000120FDF764FC060001D001020CE05F
:103120002800FDF79FFD060004D1200008F0B2FB47
:10313000060005D0FDF7FEFC3102E020084370BD1B
:10314000002070BDF2B590B0160000256A46957457
:103150000027157001005431069108AC059004AAAF
:1031600005996A3108A8FDF7E3FD01906846007CE7
:1031700001286FD110A8007801284BD104AB5B1C4B
:1031800005985421425A01466C3108A800F01EF9F6
:1031900005005FD16846407C012858D10795019D04
:1031A0000698C078012824D1002003900CA8029032
:1031B00005986C300190069880790090059854210C
:1031C000435A0822211D3000FFF7B2FB6946087000
:1031D000FDF7B0FC06006846007C002803D008F02C
:1031E000F5FB694688740798002836D00006010C64
:1031F00051E02079307060797070A079B070E0791A
:10320000F070207A3071607A7071A07AB071E07AD3
:10321000F071DDE701200021725C635C9A4200D00E
:103220000020491C725C635C9A4200D00020491C5B
:10323000725C635C9A4200D00020491C0F29EBDBD2
:1032400006991622895E08F01BFB070002D101983F
:10325000002884D00795019DBAE7002D02D02D06E5
:10326000290C18E0002E01D0310214E06846807C61
:10327000002802D06846807C0CE0002F04D0390280
:103280009A20084380B20FE068460078002868461C
:1032900004D0007801029A20084305E0007C002851
:1032A00001D19B2000E0002011B0F0BDF8B5040072
:1032B0000D005D20205C042801D0022809D168009F
:1032C0002018018B2000603080884143206840181E
:1032D0001FE068002618308F811F89B22000FFF799
:1032E000D6F807002000603000890090308F401E23
:1032F000062100F01BFA0D48414300984018318B1D
:10330000962292004A43811820684018084A574381
:10331000C019226E5208801A002D05D1626851181A
:10332000226E5208891A6161F2BD0000A861000096
:10333000E09304004069704780B508F05FFA002808
:1033400002D001029920084302BD000070B40200BF
:103350000B000020190014D00C4C80252D02010018
:1033600010780002484008214600284203D030006F
:10337000604080B200E0B0B2491EF5D1521C5B1E25
:10338000EDD103494140080070BC70472110000096
:10339000FFFF000070B402000B000021180011D0E4
:1033A0002F2480251078414008204E00294203D068
:1033B00031006140C9B200E0F1B2401EF5D1521CAB
:1033C0005B1EEFD1080070BC70470000FCB58BB0ED
:1033D00004000F0000F06DF8002001250194002486
:1033E00073A1019A0F2300940E78B4461678C64054
:1033F0000124344066466643009C6640F4B2521C89
:10340000491C5B1EEFD101996DA2125D89180A78E3
:103410000123834053400B70401C0828DFDB019ED2
:103420000A21301DFFF7B6FFB17B81423ED102ACCD
:103430003878207078786070B878A070F878E0708C
:103440006846808D20716846808D000A60713079F1
:10345000A0717079E071B0792072F0796072307A81
:10346000A072707AE072B07A2073F07A6073387864
:10347000A0737878E0734B4800685621405C009058
:10348000494B102202A902A808F08CF901000ED1C4
:10349000307B2178884206D1707B6178884202D1E6
:1034A0000C98057002E000200C99087000200DB007
:1034B000F0BDF8B40300087849780902014351438C
:1034C000C805C00D00D13948009300210023009C9D
:1034D0000825212606404708202E03D0012E01D0C2
:1034E000002001E08020400038436D1EF1D180B201
:1034F0005D1C27780600EE407E4026706778012626
:10350000AE40761E0640B4460726F51A6646AE4023
:103510007E4066705B1C641C082BD9DB0023009C7A
:1035200009340825212606404708202E03D0012E05
:1035300001D0002001E08020400038436D1EF1D111
:1035400080B25D1C27780600EE407E4026706778CA
:103550000126AE40761E0640B4460726F51A66469A
:10356000AE407E4066705B1C641C052BD9DB0824D2
:10357000212505404208202D03D0012D01D0002037
:1035800001E0802040001043641EF1D1009A927B3C
:1035900080B25B1CD8405040009A90730098C17371
:1035A000F1BC7047E8120020542A0008FF01000017
:1035B0000102040803060C0B050A070E0F0D090093
:1035C0000F0001040208050A030E0907060D0B0C83
:1035D00079B582B00020112A01DB202500E01025FA
:1035E0001D700025541E0094114C01911978EEB203
:1035F0008E420FD20199095CEDB261550099884263
:1036000002D0401CC0B200E000206D1CEEE700209C
:1036100004B070BD0298074A12685623D25C00922B
:10362000054B0A00210008F0BDF80100EFD0EFE7DC
:1036300078160020E8120020542A0008F8B404008C
:103640000D001600012B03D10821144A0A2002E0C4
:1036500005217F2206206B461E805D802300002B03
:1036600000D113001E000641012535401F000F4107
:1036700001263E405B041B0C6E4002D01D0001235E
:103680002B4313406C4624889C42E8DB6C466488DC
:10369000A342E4DB1800F2BC704700BFFF07000044
:1036A000F1B582B00F0016001C000025002E03D0DB
:1036B0003100380000F031F930002CD0029A31008E
:1036C000380080236E463470019200BF14A26C460D
:1036D0002478A4001219545D0278019E37781E00E8
:1036E00037420AD0641EA441E40F664316430670B5
:1036F0000AA2555DAD1CEDB204E0664316430670A8
:1037000006A2555D5B08E0D16A461478019A401C18
:10371000521C491ED5D103B0F0BD000000000101CC
:1037200000000000000101000001000130B50B465F
:10373000014600202022012409E00D46D5409D428B
:1037400005D31D469540491B254695404019154611
:10375000521E002DF1DC30BD70B500242546002836
:1037600001DA01244042002901DA01254942FFF72C
:10377000DDFFAC4200D04042002C00D0494270BD79
:10378000F0B51FB40646002082B0054640240191E2
:1037900000901BE0019922460F46304600F015FBD1
:1037A000049A059B801A994110D310461946224667
:1037B00000F0FBFA361A8F410197224601200021C2
:1037C000009F00F0F2FA38184D4100902046641E28
:1037D0000028DFDC019B00982946324607B0F0BD87
:1037E000F0B51FB486B000200090019002900698BA
:1037F000069980B204900798090C02040014114342
:1038000007900027089D099806913E463C46039084
:103810000398A9B20204000C039004982D0C1543E0
:1038200048430021224600F0C0FAC7197141103404
:103830000E46402CECDB3846029A00F0B6FA009AAD
:10384000019B80180090594102980191103002901C
:103850004028CCDB00980BB0F0BD000038B5044622
:10386000C0681821401E4843A16840183C214843C5
:10387000616840183C2148432168451860690C2163
:103880004843216940186921C900401A3021FFF7D7
:1038900063FF114A50434219084600921A2902DB7D
:1038A0000E49511800910C21FFF756FF0C4A504366
:1038B000009A801800900B4806E0491E425C074BB6
:1038C0005A43009BD21800920029F6DC2146684634
:1038D00000F0ACFA009838BD801F860780510100C7
:1038E0008033E10190F6000803460B439B0703D0A9
:1038F00009E008C9121F08C0042AFAD203E00B78B5
:103900000370401C491C521EF9D27047D2B201E02C
:103910000270401C491EFBD270470022F6E710B52A
:1039200013460A4604461946FFF7F0FF204610BD2D
:1039300010B5044605E00B780370401C002B00D046
:10394000491C521EF7D2204610BD421C0178401C73
:103950000029FBD1801A704710B5002200E0521CEC
:10396000835C8C5CA34201D1002BF8D1D8B2E1B2C8
:10397000401A10BD30B504460020034600E05B1C31
:10398000934203D2E05CCD5C401BF8D030BD0346CF
:103990000A780270401C491C002AF9D11846704769
:1039A00030B50546002008E00A4602E0A34207D0F1
:1039B000521C1378002BF9D1401C2C5C002CF3D145
:1039C00030BD0000F7B5009C0F4600262578641C2A
:1039D000002D05D000F01EFA0068405DC007F5D14B
:1039E0002B2D02D02D2D18D0641E39462046029A68
:1039F00000F056FA002F04D03968A14201D1009995
:103A000039607105022400290BDA4042002803DDE9
:103A100009F00EFC0460A007FEBD012080020643F1
:103A2000E3E70028F8DA09F003FC04600048FEBD73
:103A3000FFFFFF7F70B5064609F0FAFB04680546F4
:103A40000A2200213046FFF7BDFF2C6070BD024600
:103A500070B54A40D30FDB0740002DD04A002AD072
:103A6000010E140E000212020919400A520A8418AB
:103A7000E50104465443000A120A2E045043A419D7
:103A80004219200CC543AA18120C0125AD03521C83
:103A9000521912047F39240400D0521C104301D45F
:103AA0004000491EC2B20C06C0092018401C400844
:103AB000802A02D003E0002070BD400840000029A9
:103AC00000DA0020184370BDF0B50746084658409C
:103AD00087B0C00F049048000E46590040084908BE
:103AE000BC1A884105D2384631461E4617460B4659
:103AF00002465800400810434CD0300D039040055A
:103B00005900400D490D0590401A0290402872DA84
:103B100018030121000B0905084301900498009245
:103B2000002805D00199524200208841009201905E
:103B3000029840210A1A0199009800F036F90546CA
:103B40000C466B4607CB00F051F9C0197141039A3E
:103B50000E0D0023D71756401A467A40164344D01C
:103B6000049A002A2DD0029A012A039A15DC120524
:103B7000C01A914101263605001C7141D20F059EE5
:103B8000D2070093019202962A46234600F029FAB2
:103B900007B0F0BD38463146FAE71605224A0F460F
:103BA000B218C01AB74101210905001C4F41001885
:103BB0007F41114618187941E20F10436D19644195
:103BC00013E0E2076D0815436408C2071443039A23
:103BD00001261205C01A91413605001C7141CE071D
:103BE000400830434908C01851412A46234600F096
:103BF000EBF9CDE7FFE7049801224000C117121A44
:103C000000238B4104983146C417381AA141EEE7CE
:103C100030B40124E407634030BC55E730B40124DC
:103C2000E407614030BC4FE70000E0FFF0B51FB48F
:103C300088B00B990998002448400999C00F4900A1
:103C400049080991C0070B990090490049080B9158
:103C500009990898A64608431CD00B990A9808436E
:103C600018D0099801244000420D4800410D0998E0
:103C700024050003000B204309900B980003000B60
:103C800020430B9050181C49401800220190144604
:103C9000104605E0002001460DB0F0BD032801DA12
:103CA000034600E003239C46C11A0AAE0AE05F0007
:103CB00008ADED5B4F00F75B7D430027AA187C4100
:103CC000491C5B1E6145F2DD410004AB5A522104E0
:103CD000120C0A43240C401C0828DFDB01980290D8
:103CE0000099704601910090059B049A07990698E7
:103CF00000F077F9D0E700000DFCFFFF0EB5054995
:103D00000291002100910A460B46019100F069F9E9
:103D100003B000BD33040000C20F41004002012384
:103D2000400ADB05D207090EC0187F2901DA0020FE
:103D30007047962903DC9623591AC84001E096394A
:103D40008840002AF4D040427047410040020122DE
:103D5000400AD205090E80187F2901DA0020704739
:103D6000962903DC9622511AC8407047963988403C
:103D70007047CB0FDB07490010B5490802460A43DC
:103D800007D00A0D07240903E401090B121B002ABE
:103D900001DC002010BDC900440F0C43C100E01835
:103DA000D205801800F0CFF810BD10B5202A04DB32
:103DB0000146203A9140002010BD914020239C1ADA
:103DC0000346E3401943904010BD10B5202A04DBA0
:103DD0000846203AD040002110BD0B46D340D040C9
:103DE0002024A21A91400843194610BD10B5202A7C
:103DF00006DBCB170846203A1041C1170B4306E0FB
:103E00000B461341D0402024A21A91400843194682
:103E100010BD00000048704720F7000810B50249A7
:103E200000F004F810BD00009816002070B50C4694
:103E300000683C21FFF77AFC21603C21FFF776FC0B
:103E400061601821FFF772FC0546A1600721001D83
:103E5000FFF76CFCA1610F48A90008180E49FFF795
:103E600065FC0246443288086261E0613B2802D367
:103E7000910700D0401C0021084B0A462161995C43
:103E8000814203D8401A521C2261F8E7401CE060CE
:103E9000204670BD6C0B0000B505000024F700083B
:103EA000F7B582B0029C00272078641C1546019764
:103EB000302802D0002D15D015E020780127641C91
:103EC000782804D0582802D0002D09D00BE0002D0E
:103ED00001D0102D07D1002710252078641C02E0A6
:103EE000082500E00A250026009610E00099012729
:103EF00069430818020C294680B2714300908E185D
:103F00003804864201D3012001902078641C2946A0
:103F100000F0CCF80028E9DA0398002805D0002F3B
:103F200001D0641E00E0029C04600198002806D0C5
:103F300009F07EF902210160C81E05B0F0BD0099AC
:103F400030040843F9E7002904DA401C490001D194
:103F500040084000704770B40024050C05D11024BF
:103F6000000402D1002921D01124050E01D1000244
:103F70000834050F01D10001241D850F01D18000F7
:103F8000A41C002801DB4000641C002908D0202567
:103F90002E1B0D46F540A14000D0012129430843C6
:103FA00001061B1B000ADB1D02D5002070BC7047F8
:103FB000DB05181880180029F8DA401C4900F5D1F3
:103FC00070BC40084000704710B5002B08DA002490
:103FD000401C614192185B411A4301D140084000E6
:103FE00010BDF0B51FB482B005460C0003D00846E2
:103FF00009F0D8F802E009F0D5F820300246009028
:1040000021462846FFF7D1FE049B059A04460F4639
:1040100018431143084314D0184610431BD000988E
:1040200040210A1A18460599FFF7CFFE05460E46AD
:10403000009A05990498FFF7B8FE084305D00120BF
:1040400004E02046394607B0F0BD0020C117054303
:104050000E432C43374300990E986305401A7905A7
:10406000E40A00220C43FD0A0A3002D50020014672
:10407000E9E70105101969410C9C0D9D0019694182
:10408000FFF7A2FFDFE70000064C0125064E05E022
:10409000E36807CC2B430C3C98471034B442F7D369
:1040A000FCF712F858FC000878FC00083A2800D207
:1040B0003038202302469A43412A01D3104637382C
:1040C000884201D30020C043704770B58D18047832
:1040D000401CA207920F01D10278401C231106D187
:1040E0000378401C03E006780E70401C491C521EE9
:1040F000F9D1002B15D002780C268A1A3440401CC6
:104100000C2C03D0A401121B9B1C08E00478240291
:10411000121B401CF8E714780C70491C521C5B1EE3
:10412000F9D5A942D3D3002070BD000080B582B07C
:1041300000AF7B1D00221A70FB1D00221A704CE09C
:10414000FB1D1A782A4B9200D358092B40D9BB1D6E
:1041500000221A7004E0BB1D1A78BB1D01321A70D0
:10416000BB1D1A78234913009B009B189B00CB189A
:1041700005331B785A1EFB1D1B789A4205D01D4B38
:104180001B78BA1D12789A42E5D3BB1D1A781949DB
:1041900013009B009B189B00CB1806331B781D2B2C
:1041A00011D8BB1D1A78134913009B009B189B0064
:1041B000CB1806331B781D2B0AD8FB1D1B780E4A23
:1041C000D35C052B04D97B1D1A787B1D01321A7034
:1041D000FB1D1A78FB1D01321A70FB1D1B781F2B6B
:1041E000AED97B1D1B781800BD4602B080BDC0460D
:1041F00098140020F01A00201C15002090B585B0FE
:1042000000AF0200FB1D1A700E23FB1800221A805B
:104210003EE00E23FB181B88234A0021D1540C23B7
:10422000FB1800221A8027E00E23FB181B880E22A1
:10423000BA1812881C498A5C51B20E22BA18128828
:10424000D0000C22BA18128882181848825C140018
:104250000C22BA1812880720821A9440220052B207
:104260000A4352B2D1B2104AD1540C23FB181A8817
:104270000C23FB1801321A800C23FB181B88072B18
:10428000D2D90E23FB181A880E23FB1801321A808C
:10429000FB1D1B789BB20E22BA1812889A42B8D323
:1042A000C046BD4605B090BDF01B00206015002043
:1042B00080B500AF2C4B1B78002B51D12B4B180035
:1042C0002B4B9847031E4BD0284B1B78052B07D14F
:1042D000264B5B78012B03D1234B01221A703FE060
:1042E000224B1B78022B07D1204B5B78142B03D178
:1042F0001D4B02221A7033E01C4B1B78012B07D197
:104300001A4B5B78072B03D1174B03221A7027E057
:10431000164B1B78012B07D1144B5B78352B03D13F
:10432000114B04221A701BE0104B1B78012B07D194
:104330000E4B5B78202B03D10B4B06221A700FE03B
:104340000A4B1B780A2B07D1084B5B78042B03D14F
:10435000054B05221A7003E0034B00221A70FFE799
:10436000C046BD4680BDC04604130020081300208F
:104370003D53000880B584B000AF78600E23FB1871
:10438000304A1A800A23FB182F4A1A800C23FB1884
:1043900000221A704AE00D23FB1880221A7039E0BF
:1043A0000E23FB1800229B5E002B0EDA0E23FB1857
:1043B0001B885B001AB20A23FB1800215B5E534086
:1043C0001AB20E23FB181A8006E00E23FA180E23E9
:1043D000FB181B88DB1813800C23FB181B787A68EA
:1043E000D3181B780D22BA1812781340DBB2002BB9
:1043F00009D00E23FB180E22B9180A22BA18098810
:1044000012884A401A800D23FB180D22BA18127820
:1044100052081A700D23FB181B78002BC0D10C23F7
:10442000FB181A780C23FB1801321A700C23FB18A6
:104430001B78032BAFD90E23FB181B881800BD4631
:1044400004B080BD5BA8FFFFADBAFFFF80B582B0AE
:1044500000AFFB1D00221A7067E0FB1D1A7840496F
:1044600013009B009B189B00CB18043300221A708A
:10447000FB1D1A783A4913009B009B189B00CB1830
:10448000063300221A70FB1D1A78354913009B0071
:104490009B189B00CB18083300221A60FB1D1A786A
:1044A0002F4913009B009B189B00CB18143300224C
:1044B0001A70FB1D1A782A4913009B009B189B0059
:1044C000CB18103300221A60FB1D1A782449130000
:1044D0009B009B189B00CB180E3300221A80FB1DFB
:1044E0001A781F4913009B009B189B00CB180C33B4
:1044F00000221A80FB1D1A78194913009B009B1893
:104500009B00CB18053300221A70FB1D1A78144942
:1045100013009B009B189B00CB18153300221A70C8
:10452000FB1D1A78FB1D01321A70FB1D1B780B2B2B
:1045300093D9FB1D00221A700AE0FB1D1A78094B63
:1045400092000021D150FB1D1A78FB1D01321A7018
:10455000FB1D1B781F2BF0D9C046BD4602B080BDA5
:10456000F01A00209814002080B500AF024B1B68A1
:104570001800BD4680BDC046F812002080B500AFCF
:104580000D4B984702000D4B1A600C4B1A680C4BF0
:104590001B68D21A0B4B1A600A4B1B6864225A43E1
:1045A000094BFA211000984703001A00054B1A60C6
:1045B000C046BD4680BDC046694500084015002084
:1045C0003C1500204C1500202D37000880B582B026
:1045D00000AFFB1D00221A7053E1FB1D1A78AE4993
:1045E00013009B009B189B00CB1805331B78042BF2
:1045F00000D041E1BB1DFA1D12781A70C8E0BB1D46
:104600001A78BB1D1B78591CA3480B009B005B1834
:104610009B00C318043318789F4913009B009B1814
:104620009B00CB180433021C1A70BB1D1A78BB1DEB
:104630001B78591C98480B009B005B189B00C31803
:1046400006331878944913009B009B189B00CB18E5
:104650000633021C1A70BB1D1A78BB1D1B78591C2F
:104660008D480B009B005B189B00C318053318781E
:10467000894913009B009B189B00CB180533021C33
:104680001A70BB1D1A78BB1D1B78591C82480B0081
:104690009B005B189B00C318083319687E48130001
:1046A0009B009B189B00C31808331960BB1D1A7828
:1046B000BB1D1B78591C78480B009B005B189B00A6
:1046C000C3180C331888744913009B009B189B0077
:1046D000CB180C33021C1A80BB1D1A78BB1D1B782B
:1046E000591C6D480B009B005B189B00C3180E33D0
:1046F0001888694913009B009B189B00CB180E3348
:10470000021C1A80BB1D1A78BB1D1B78591C6248FD
:104710000B009B005B189B00C318103319685E48A0
:1047200013009B009B189B00C31810331960BB1D1E
:104730001A78BB1D1B78591C57480B009B005B184F
:104740009B00C31814331878534913009B009B181F
:104750009B00CB181433021C1A70BB1D1A78BB1DAA
:104760001B78591C4C480B009B005B189B00C3181E
:1047700015331878484913009B009B189B00CB18F1
:104780001533021C1A70BB1D1A78BB1D01321A703A
:10479000BB1D1A78404B1B78013B9A4200DA2EE78A
:1047A000BB1D1A783C4913009B009B189B00CB183B
:1047B000043300221A70BB1D1A78374913009B007E
:1047C0009B189B00CB18063300221A70BB1D1A7869
:1047D000314913009B009B189B00CB180533002226
:1047E0001A70BB1D1A782C4913009B009B189B0064
:1047F000CB18083300221A60BB1D1A782649130013
:104800009B009B189B00CB180C3300221A80BB1D09
:104810001A78214913009B009B189B00CB180E337C
:1048200000221A80BB1D1A781B4913009B009B189D
:104830009B00CB18103300221A60BB1D1A78164952
:1048400013009B009B189B00CB18143300221A7096
:10485000BB1D1A78104913009B009B189B00CB18B6
:10486000153300221A700C4B1B78013BDAB20A4B4D
:104870001A700A4B0022DA60FB1D1A78FB1D013208
:104880001A70054B1B78FA1D12789A4200D2A4E6E2
:10489000C046BD4602B080BDF01A0020981400202A
:1048A00080B584B000AF78600F23FB1800221A7027
:1048B00011E00F23FB181B787A68D3180F22BA185F
:1048C00012781D498A5C1A700F23FB181A780F237F
:1048D000FB1801321A70194B1B780F22BA18127884
:1048E0009A42E6D30E23FB1800221A7006E00E232C
:1048F000FB181A780E23FB1801321A700F4B1B7825
:104900000E22BA1812789A42F1D30E23FB18002215
:104910001A7006E00E23FB181A780E23FB180132DA
:104920001A70064B1B780E22BA1812789A42F1D3ED
:10493000C046BD4604B080BDF01B0020EC1B00202B
:1049400080B582B000AFFB1D054A12781A70054B86
:104950009847FB1D1B781800BD4602B080BDC046BD
:10496000041300209149000880B500AF054B98471B
:10497000054B1B78002B01D0044B9847C046BD4621
:1049800080BDC046554A00085C150020894B0008D0
:1049900080B500AF024B00221A70C046BD4680BDF4
:1049A0000413002080B582B000AF7860094B1A7AFA
:1049B0007B681A72074B5A7A7B685A72054B5A68A1
:1049C0007B685A60034B1A887B681A80C046BD46D4
:1049D00002B080BDD41A002080B584B000AF7860EA
:1049E00008001100FB1C021C1A703B000A1C1A80F4
:1049F000FB1C1A787B6811001800134B98470F2393
:104A0000FB1800221A7013E03B001A880F23FB18D2
:104A10001B78D3180F22BA1812780C49895C0C4AFB
:104A2000D1540F23FB181A780F23FB1801321A7088
:104A30000F23FA18FB1C12781B789A42E4D3C04665
:104A4000BD4604B080BDC0467D6B000860160020E6
:104A50006015002080B582B000AFFB1D00221A70E7
:104A600009E0FB1D1B78084A0021D154FB1D1A7870
:104A7000FB1D01321A70FB1D1B781F2BF1D9C0469C
:104A8000BD4602B080BDC046F01B002080B582B09C
:104A900000AFBB1D1E4A527A1A70BB1D1B780C2B2F
:104AA00002D9BB1D0C221A701A4B9847BB1D1B78EC
:104AB000002B26D0FB1D00221A701CE0FB1D1A786B
:104AC00013005B009B189B000D33114AD35C591EE9
:104AD000FB1D1A7813005B009B189B0014330C4AD3
:104AE000D35C07221340DAB20B4B5A54FB1D1A78E1
:104AF000FB1D01321A70FA1DBB1D12781B789A42F9
:104B0000DCD3064B00221A70C046BD4602B080BD01
:104B100008130020355500081C1500200413002040
:104B200080B500AF164BDB7B1A0003231340032B29
:104B300022D1134BDB791A06114B9B791B04D21837
:104B40000F4B5B791B02D3180D4A12799B181A0080
:104B50000C4B5A600A4B5B7B9BB21B029AB2084B10
:104B60001B7B9BB2D3189AB2064B1A80054B1222BC
:104B70001A72044B02225A72C046BD4680BDC0461E
:104B800008130020D41A002080B582B000AF3B1D6E
:104B900000221A8004E03B1D1A883B1D01321A8056
:104BA0007F4B1B789BB23A1D12889A42F3D33B1D70
:104BB00000221A8009E03B1D1B887A4A0021D1544B
:104BC0003B1D1A883B1D01321A803B1D1B88FF2BA1
:104BD000F1D93B1D00221A8009E03B1D1B88724A57
:104BE0000021D1543B1D1A883B1D01321A803B1D08
:104BF0001B880B2BF1D93B1D00221A800BE03B1DBB
:104C00001B883A1D1288D1B2674AD1543B1D1A88BD
:104C10003B1D01321A80624B1B789BB23A1D1288F1
:104C20009A42ECD3614B98473B1D00221A804BE01F
:104C3000BB1C00221A8037E0BB1C1B885A4AD35C7D
:104C40001900574A0B009B005B189B00D3180533D3
:104C50001A78BB1C1B8801335349CB5C18005049A0
:104C600003009B001B189B00CB1805331B789A424E
:104C700015D9BB1C1A887B1C4B498A5C1A70BB1C5B
:104C80001B88BA1C128801324749895C464AD154B4
:104C9000BB1C1B880133444A791C0978D154BB1CC6
:104CA0001A88BB1C01321A80BB1C1A883C4B1B782B
:104CB00019003B1D1B88CB1A013B9A42BCDB3B1DF4
:104CC0001A883B1D01321A803B1D1A88344B1B7811
:104CD000013B9A42ACDB3B1D00221A8004E03B1DE5
:104CE0001A883B1D01321A802D4B1B789BB23A1D4E
:104CF00012889A42F3D32E4B1B78072B34D89A0094
:104D00002C4BD3181B689F462B4B20221A702B4B21
:104D100098472AE0284B20221A70294B984724E014
:104D2000254B16221A70264B98471EE0224B102264
:104D30001A70234B984718E01F4B12221A70204B11
:104D4000984712E01C4B0C221A701D4B98470CE040
:104D5000194B0C221A701A4B984706E0164B0A2280
:104D60001A70174B984700E0C046134B1B78180089
:104D7000144B9847144B9847FB1D00221A7004E00F
:104D8000FB1D1A78FB1D01321A700B4B1B78FA1DA4
:104D900012789A42F4D3C046BD4602B080BDC046E8
:104DA000F01A002060150020501500200171000845
:104DB000C81A002038FC0008EC1B0020ED62000837
:104DC00025570008FD4100088550000880B500AF58
:104DD000074B98470200074B1B68D21A064B0A2163
:104DE0001000984703009BB21800BD4680BDC04626
:104DF000694500083C1500202D37000880B59AB0A1
:104E000000AF9C4B3B669C4B1B78002B04D1652369
:104E1000FB181E221A700DE0974B1B78012B04D152
:104E20006523FB1810221A7004E06523FB18934ACF
:104E300012781A706723FB1800221A700CE067239F
:104E4000FB181B783A000021D1546723FB181A780D
:104E50006723FB1801321A706723FB181B781F2B7E
:104E6000EDD96723FB1800221A7016E06523FB18A2
:104E70001B782022D21A6723FB181B78D3186722CD
:104E8000BA1812787E49895C3A00D1546723FB181E
:104E90001A786723FB1801321A706723FA18652302
:104EA000FB1812781B789A42E0D36723FB18002284
:104EB0001A702FE06723FB181A786723FB181B78FA
:104EC0009B003900CB5C19066723FB181B789B00FD
:104ED00001333800C35C1B04C9186723FB181B7817
:104EE0009B0002333800C35C1B02CB186721791882
:104EF0000978890003313800415C5B1819002023D0
:104F0000FB189200D1506723FB181A786723FB180F
:104F100001321A706723FB181B78072BCAD920238C
:104F2000FB18DA693B6E5A404023FB18DA616723AD
:104F3000FB1807221A7020E06723FB181B785A1E03
:104F40006723FB1819784023FB188900C958672389
:104F5000FB181B78581E2023FB188000C3585940AB
:104F60003B6E59404023FB189200D1506723FB1839
:104F70001A786723FB18013A1A706723FB181B780D
:104F8000002BD9D16623FB1800221A7031E0672369
:104F9000FB1800221A7020E06723FB181A7866239A
:104FA000FB181B789B00D3186622BA181178402290
:104FB000BA18890089586722BA1812780320821A11
:104FC000D200D1400A00D1B23A00D1546723FB1875
:104FD0001A786723FB1801321A706723FB181B78B5
:104FE000032BD9D96623FB181A786623FB180132E4
:104FF0001A706623FB181B78072BC8D96723FB1888
:1050000000221A7016E06723FB181B786522BA1875
:1050100012782021891A6722BA1812788A18390062
:10502000895C174AD1546723FB181A786723FB1849
:1050300001321A706723FA186523FB1812781B785F
:105040009A42E0D36723FB1800221A7006E0672318
:10505000FB181A786723FB1801321A706723FA18B5
:105060006523FB1812781B789A42F0D3C046BD46E0
:105070001AB080BD7CBF65A7C81A0020EC1B0020B9
:10508000F01B002080B500AF184B1B78002B13D10C
:10509000174B1B68FF2B06D9164B1B78013B164A92
:1050A000FF21D1541FE0134B1B785A1E104B1B6875
:1050B000D9B2114B995416E00C4B1B78012B12D12D
:1050C0000B4B1B68FF2B06D90A4B1B78013B0A4A86
:1050D000FF21D15407E0074B1B785A1E044B1B6875
:1050E000D9B2054B9954C046BD4680BDC81A0020B0
:1050F0004C150020EC1B0020F01B002080B500AFF9
:10510000024B00221A60C046BD4680BDF812002046
:1051100090B583B000AF184B1B78022B14D1174BFE
:105120001B780133DAB2154B1A70FC1D144B9847EB
:1051300003002370134B9847FB1D1B78002B17D0DF
:10514000114B01221A7013E00B4B1B78042B04D176
:105150000E4B98470B4B98470AE0074B1B78062BE2
:1051600004D10B4B9847074B984701E0054B9847F4
:10517000C046BD4603B090BD041300204B1500206F
:10518000B1770008914900084A1500208D4A0008AF
:10519000214B000880B582B000AFFB1D00221A70C1
:1051A000564B1B780B2B00D992E09A00544BD31826
:1051B0001B689F4696239A01524B11001800524BD0
:1051C00098474E4B01221A7091E04C4B02221A7004
:1051D0008DE04E4B98474E4B0E2118004D4B984793
:1051E000464B03221A7082E04B4B98470300012B79
:1051F00000D06FE0494B42211800464B98473F4B87
:1052000004221A7066E0444B98470300012B63D1D7
:10521000434B092118003F4B9847384B05221A7021
:105220005AE03D4B98470300012B57D13D4B0921D4
:105230001800384B9847314B06221A704EE0364B17
:1052400098470300012B4BD1374B09211800314BF4
:1052500098472A4B07221A7042E02F4B98470300C9
:10526000012B3FD1314B092118002A4B9847234B82
:1052700008221A7036E0284B98470300012B33D1DF
:105280002B4B1A211800234B98472A4B98470200B2
:10529000294B1A60194B09221A7025E0254B9847B3
:1052A0000200254B1B6801339A421FD3E1235A02A7
:1052B000144B11001800144B9847104B0B221A7016
:1052C00014E00E4B00221A70FB1D01221A700EE032
:1052D000C0460CE0C0460AE0C04608E0C04606E012
:1052E000C04604E0C04602E0C04600E0C046FB1DE8
:1052F0001B781800BD4602B080BDC046F4120020E5
:1053000008FC0008B142000881F300089149000838
:1053100014FB0008216700084149000854FB0008FD
:1053200098FB0008A4FB0008B0FB0008BCFB0008C9
:1053300038FB0008694500081815002080B584B0C6
:1053400000AF78600A23FB1800221A700B23FB18A9
:1053500000221A700A23FB1818006F4B9847031E8F
:1053600000D1D2E06D4B1B78082B00D9C5E09A0024
:105370006B4BD3181B689F460A23FB181B78B52B71
:1053800000D0BFE0654B01221A70BBE00A23FB1876
:105390001B78622B03D1614B02221A70B5E05F4B80
:1053A00000221A70B1E00A23FB181A787B681A7081
:1053B0005A4B03221A70A8E07B6801330A22BA18FC
:1053C00012781A70554B04221A709EE07B680233E3
:1053D0000A22BA1812781A70504B05221A7094E0FB
:1053E0007B6803330A22BA1812781A707B6802337A
:1053F0001B789AB27B6803331B789BB21B029BB26B
:10540000D3189BB25B055B0D9AB2464B1A80454B95
:105410001A888C23FF339A4206D8434B00221A8005
:105420003E4B06221A7070E03C4B00221A706CE072
:105430003D4B1B8804337A68D3180A22BA181278B5
:105440001A70394B1B8801339AB2374B1A80364B8E
:105450001A88344B1B889A4256D1304B07221A7057
:1054600052E0324B00221A80314B00221A80002376
:10547000FB6015E07A68FB68D3181B789AB22B4B57
:105480001B88D3189AB2294B1A80284B1A88284BAC
:105490001B88D3189AB2264B1A80FB680133FB6035
:1054A000204B1B8804331A00FB689A42E2D80A2377
:1054B000FB181B781A001D4B1B881900FF230B409B
:1054C0009A4203D1154B08221A701EE0134B00229A
:1054D0001A701AE00A23FB181B781A00144B1B8859
:1054E0001900FF230B409A4203D10B23FB18012222
:1054F0001A700A4B00221A7007E0084B00221A703B
:10550000C04602E0C04600E0C0460B23FB181B78F3
:105510001800BD4604B080BD9DF30008F3120020C2
:10552000E4FB0008FC120020FE1200200013002003
:105530000213002080B582B000AFFB1D00221A705C
:1055400009E0FB1D1B78084A0021D154FB1D1A7885
:10555000FB1D01321A70FB1D1B781F2BF1D9C046B1
:10556000BD4602B080BDC0461C15002080B582B08B
:1055700000AFFB1D00221A70B1E0FB1D1A785D49D7
:1055800013009B009B189B00CB1806331B78232B22
:105590001ED9FB1D1A78574913009B009B189B00CE
:1055A000CB1805331B78581EFB1D1A785149130080
:1055B0009B009B189B00CB1805331B785A1E4E4B43
:1055C0009200D3580A3319004B4B8200D15081E02E
:1055D000FB1D1A78474913009B009B189B00CB18B2
:1055E00006331B781E2B1DD9FB1D1A784149130069
:1055F0009B009B189B00CB1805331B78581EFB1D86
:105600001A783C4913009B009B189B00CB1805336C
:105610001B785A1E384B9200D358591D364B8200C6
:10562000D15057E0FB1D1A78324913009B009B189C
:105630009B00CB1806331B78172B1DD9FB1D1A783E
:105640002C4913009B009B189B00CB1805331B783B
:10565000581EFB1D1A78274913009B009B189B00BE
:10566000CB1805331B785A1E234B9200D358D91CF4
:10567000214B8200D1502DE0FB1D1A781D491300EB
:105680009B009B189B00CB1806331B78112B12D95B
:10569000FB1D1A78174913009B009B189B00CB1821
:1056A00005331B78013B144A99008A58511C124A51
:1056B0009B0099500EE0FB1D1A780E4913009B00C9
:1056C0009B189B00CB1805331B785A1E0A4B92007F
:1056D0000021D150FB1D1A78FB1D01321A70054BB9
:1056E0001B78FA1D12789A4200D246E7C046BD46A2
:1056F00002B080BDF01A00209814002080B500AFE1
:10570000074B00221A72064B00225A72044B0022E9
:105710005A60034B00221A80C046BD4680BDC04679
:10572000D41A0020F0B5C64600B598B000AF4B23A0
:1057300010229446BC44634400221A70D84B1B7854
:10574000022B09D1D74B1A784A2310218C46BC442E
:105750006344053A1A7008E0D24B1A784A231021A4
:105760008C46BC446344033A1A70CF4B1B78062B1B
:1057700004D0CD4B1B78072B00D04BE14D231022DA
:105780009446BC44634400221A7016E04D23102254
:105790009446BC4463441B781422BA180021D154A7
:1057A0004D2310229446BC4463441A784D231021A3
:1057B0008C46BC44634401321A704D231022944637
:1057C000BC4463441B781F2BE0D9B74B1B78062BD6
:1057D00004D108220821FE20B44B98474D23102203
:1057E0009446BC44634400221A701FE04D231022EB
:1057F0009446BC4463441A78AA4913009B009B1842
:105800009B00CB1805331B78013B1422BA180121E9
:10581000D1544D2310229446BC4463441A784D233E
:1058200010218C46BC44634401321A709D4B1B7896
:105830004D2210218C46BC44624412789A42D5D342
:105840004D2310229446BC44634400221A706FE03A
:105850004D2310229446BC4463441B78242210211B
:105860008C46BC4462440021D1544C2310229446FF
:10587000BC44634400221A7045E04D231022944634
:10588000BC4463441B784D2210218C46BC446244C6
:105890001278242110208446BC4461448A5C51B2B1
:1058A0004D2210208446BC4462441278D0004C2221
:1058B0001024A446BC44624412788218142038187C
:1058C000825C14004C2210208446BC44624412784E
:1058D0000720821A9440220052B20A4352B2D1B237
:1058E000242210208446BC446244D1544C2310220C
:1058F0009446BC4463441A784C2310218C46BC4423
:10590000634401321A704C2310229446BC44634411
:105910001B78072BB1D94D2310229446BC44634415
:105920001A784D2310218C46BC44634401321A700E
:105930004D2310229446BC4463441B78032B87D923
:105940003C231022BA18D418242310229446BC44B5
:1059500063441800564B984703002380504B1B7834
:10596000022B17D1504B1B781C004A23102294465F
:10597000BC4463441A784E2310217918C9184D4845
:105980001300DB009B1A9B00DC2262439B181B5A0E
:105990000B8018E0444B1B789C464A23102290460B
:1059A000B84443441A784E2310218846B8444344EF
:1059B000404954245001DC2265466A4382188A1803
:1059C000121912881A803C2310229446BC44634466
:1059D00018884E2310229446BC4463441B881A0046
:1059E0001021324B98474E2310229446BC44634406
:1059F0001B88DAB24B2310218C46BC4463441B78CD
:105A0000D318DAB24B2310218C46BC4463441032C5
:105A10001A703DE04D2310229446BC44634400229A
:105A20001A701EE04D2310229446BC4463441A7839
:105A30001C4913009B009B189B00CB1805331B7857
:105A4000013B1D4A0121D1544D2310229446BC44F0
:105A500063441A784D2310218C46BC4463440132C0
:105A60001A70104B1B784D2210218C46BC446244A6
:105A700012789A42D6D34B2310229446BC446344F6
:105A80004B2210218C46BC446244127820321A709A
:105A90004D2310229446BC44634401221A704AE10B
:105AA000E01A0020F01A0020C81A0020D949000886
:105AB000754300084803002060150020DC4B1B786C
:105AC000022B58D1DB4B1B789C464A231022904670
:105AD000B84443441A784D2310218846B8444344BF
